{
  "_format": "hh-sol-artifact-1",
  "contractName": "Tasks",
  "sourceName": "contracts/Tasks.sol",
  "abi": [
    {
      "inputs": [],
      "name": "callme",
      "outputs": [
        {
          "internalType": "address",
          "name": "",
          "type": "address"
        }
      ],
      "stateMutability": "view",
      "type": "function"
    },
    {
      "inputs": [
        {
          "internalType": "address[]",
          "name": "_addresses",
          "type": "address[]"
        }
      ],
      "name": "distribute",
      "outputs": [],
      "stateMutability": "nonpayable",
      "type": "function"
    },
    {
      "inputs": [],
      "name": "message",
      "outputs": [
        {
          "internalType": "string",
          "name": "",
          "type": "string"
        }
      ],
      "stateMutability": "view",
      "type": "function"
    },
    {
      "inputs": [
        {
          "internalType": "string",
          "name": "_message",
          "type": "string"
        }
      ],
      "name": "pay",
      "outputs": [],
      "stateMutability": "payable",
      "type": "function"
    }
  ],
  "bytecode": "0x608060405234801561001057600080fd5b5061094c806100206000396000f3fe60806040526004361061003f5760003560e01c80632b66d72e146100445780636138889b14610060578063a3c8e39314610089578063e21f37ce146100b4575b600080fd5b61005e6004803603810190610059919061049d565b6100df565b005b34801561006c57600080fd5b5061008760048036038101906100829190610546565b6100f9565b005b34801561009557600080fd5b5061009e61020a565b6040516100ab91906105d4565b60405180910390f35b3480156100c057600080fd5b506100c9610212565b6040516100d69190610677565b60405180910390f35b80600090805190602001906100f59291906102a0565b5050565b60008282905090506000814761010f9190610701565b905060005b8281101561020357600085858381811061013157610130610732565b5b9050602002016020810190610146919061078d565b73ffffffffffffffffffffffffffffffffffffffff1683604051610169906107eb565b60006040518083038185875af1925050503d80600081146101a6576040519150601f19603f3d011682016040523d82523d6000602084013e6101ab565b606091505b50509050806101ef576040517f08c379a00000000000000000000000000000000000000000000000000000000081526004016101e69061084c565b60405180910390fd5b5080806101fb9061086c565b915050610114565b5050505050565b600033905090565b6000805461021f906108e4565b80601f016020809104026020016040519081016040528092919081815260200182805461024b906108e4565b80156102985780601f1061026d57610100808354040283529160200191610298565b820191906000526020600020905b81548152906001019060200180831161027b57829003601f168201915b505050505081565b8280546102ac906108e4565b90600052602060002090601f0160209004810192826102ce5760008555610315565b82601f106102e757805160ff1916838001178555610315565b82800160010185558215610315579182015b828111156103145782518255916020019190600101906102f9565b5b5090506103229190610326565b5090565b5b8082111561033f576000816000905550600101610327565b5090565b6000604051905090565b600080fd5b600080fd5b600080fd5b600080fd5b6000601f19601f8301169050919050565b7f4e487b7100000000000000000000000000000000000000000000000000000000600052604160045260246000fd5b6103aa82610361565b810181811067ffffffffffffffff821117156103c9576103c8610372565b5b80604052505050565b60006103dc610343565b90506103e882826103a1565b919050565b600067ffffffffffffffff82111561040857610407610372565b5b61041182610361565b9050602081019050919050565b82818337600083830152505050565b600061044061043b846103ed565b6103d2565b90508281526020810184848401111561045c5761045b61035c565b5b61046784828561041e565b509392505050565b600082601f83011261048457610483610357565b5b813561049484826020860161042d565b91505092915050565b6000602082840312156104b3576104b261034d565b5b600082013567ffffffffffffffff8111156104d1576104d0610352565b5b6104dd8482850161046f565b91505092915050565b600080fd5b600080fd5b60008083601f84011261050657610505610357565b5b8235905067ffffffffffffffff811115610523576105226104e6565b5b60208301915083602082028301111561053f5761053e6104eb565b5b9250929050565b6000806020838503121561055d5761055c61034d565b5b600083013567ffffffffffffffff81111561057b5761057a610352565b5b610587858286016104f0565b92509250509250929050565b600073ffffffffffffffffffffffffffffffffffffffff82169050919050565b60006105be82610593565b9050919050565b6105ce816105b3565b82525050565b60006020820190506105e960008301846105c5565b92915050565b600081519050919050565b600082825260208201905092915050565b60005b8381101561062957808201518184015260208101905061060e565b83811115610638576000848401525b50505050565b6000610649826105ef565b61065381856105fa565b935061066381856020860161060b565b61066c81610361565b840191505092915050565b60006020820190508181036000830152610691818461063e565b905092915050565b6000819050919050565b7f4e487b7100000000000000000000000000000000000000000000000000000000600052601260045260246000fd5b7f4e487b7100000000000000000000000000000000000000000000000000000000600052601160045260246000fd5b600061070c82610699565b915061071783610699565b925082610727576107266106a3565b5b828204905092915050565b7f4e487b7100000000000000000000000000000000000000000000000000000000600052603260045260246000fd5b61076a816105b3565b811461077557600080fd5b50565b60008135905061078781610761565b92915050565b6000602082840312156107a3576107a261034d565b5b60006107b184828501610778565b91505092915050565b600081905092915050565b50565b60006107d56000836107ba565b91506107e0826107c5565b600082019050919050565b60006107f6826107c8565b9150819050919050565b7f4661696c65640000000000000000000000000000000000000000000000000000600082015250565b60006108366006836105fa565b915061084182610800565b602082019050919050565b6000602082019050818103600083015261086581610829565b9050919050565b600061087782610699565b91507fffffffffffffffffffffffffffffffffffffffffffffffffffffffffffffffff8214156108aa576108a96106d2565b5b600182019050919050565b7f4e487b7100000000000000000000000000000000000000000000000000000000600052602260045260246000fd5b600060028204905060018216806108fc57607f821691505b602082108114156109105761090f6108b5565b5b5091905056fea26469706673582212204ce148736e9bf6681135f835c8fca58b05b818c2ce5df4e9e769bc7765c68fb964736f6c63430008090033",
  "linkReferences": {},
  "deployedLinkReferences": {}
}